:020000040800F2
:100000000080012021160008891400088B140008C4
:100010008D1400088F1400089114000800000000DF
:100020000000000000000000000000009314000821
:1000300095140008000000007116000871160008F1
:100040007116000871160008711600087116000874
:100050007116000871160008711600087116000864
:100060007116000871160008711600087116000854
:100070007116000871160008711600087116000844
:1000800071160008711600087116000800000000C3
:1000900000000000000000000000000071160008D1
:1000A0007116000871160008711600087116000814
:1000B0007116000871160008711600087116000804
:1000C00071160008711600087116000871160008F4
:1000D0007116000871160008711600080000000073
:1000E0007116000871160008711600080000000063
:1000F0000000000000000000000000007116000871
:100100000000000071160008711600087116000842
:1001100000000000000000000000000000000000DF
:100120007116000871160008711600087116000893
:100130007116000800000000000000000000000030
:100140000000000000000000000000007116000820
:100150007116000871160008711600087116000863
:100160007116000871160008000000000000000071
:10017000000000000000000000000000000000007F
:1001800000000000711600080000000000000000E0
:0401900071160008DC
:1001C00010B5054C237833B9044B13B10448AFF391
:1001D00000800123237010BDD00900200000000022
:1001E00080B4000808B5034B1BB103490348AFF3C3
:1001F000008008BD00000000D409002080B4000881
:10020000384C394D25604FF0020080F3148837498F
:100210004868D0F800C0DFF8D810096801F4700110
:10022000B1F5700F0ED10CF1640CBCE8FF000CF1BD
:10023000480C8CF309882DED010ABDEC010AAE468D
:1002400062B630470CF1240CBCE8FF008CF309883F
:10025000AE4662B63047EFF3108072B67047EFF3E8
:10026000108062B6704780F31088704721484FF0C5
:10027000805101607047BFF34F8FBFF36F8FEFF373
:10028000108C72B62DE9005002F0CCFFBDE8005092
:100290000028704602D18CF3108870478646EFF331
:1002A000098020E9F01FDFF848301B6803F4700371
:1002B000B3F5700F01D120ED108B0C4D2E6830601E
:1002C00068682860016803F47003B3F5700F01D10A
:1002D000B1EC108BB1E8F01F81F309888CF3108822
:1002E0007047000020ED00E00000F0F0D40B00208B
:1002F00088ED00E004ED00E081F0004102E000BF85
:1003000083F0004330B54FEA41044FEA430594EAD5
:10031000050F08BF90EA020F1FBF54EA000C55EA10
:10032000020C7FEA645C7FEA655C00F0E2804FEAE1
:100330005454D4EB5555B8BF6D420CDD2C4480EAC3
:10034000020281EA030382EA000083EA010180EAF3
:10035000020281EA0303362D88BF30BD11F0004F41
:100360004FEA01314FF4801C4CEA113102D0404277
:1003700061EB410113F0004F4FEA03334CEA1333B2
:1003800002D0524263EB430394EA050F00F0A780CA
:10039000A4F10104D5F1200E0DDB02FA0EFC22FAC5
:1003A00005F2801841F1000103FA0EF2801843FAB9
:1003B00005F359410EE0A5F120050EF1200E012AAA
:1003C00003FA0EFC28BF4CF0020C43FA05F3C018E8
:1003D00051EBE37101F0004507D54FF0000EDCF161
:1003E000000C7EEB00006EEB0101B1F5801F1BD30A
:1003F000B1F5001F0CD349085FEA30004FEA3C0C0E
:1004000004F101044FEA445212F5800F80F09A8003
:10041000BCF1004F08BF5FEA500C50F1000041EB07
:10042000045141EA050130BD5FEA4C0C404141EB0B
:100430000101013C28BFB1F5801FE9D291F0000F06
:1004400004BF01460020B1FA81F308BF2033A3F1B5
:100450000B03B3F120020CDA0C3208DD02F1140CAC
:10046000C2F10C0201FA0CF021FA02F10CE002F1E7
:100470001402D8BFC2F1200C01FA02F120FA0CFCE0
:10048000DCBF41EA0C019040E41AA2BF01EB045129
:10049000294330BD6FEA04041F3C1CDA0C340EDC27
:1004A00004F11404C4F1200220FA04F001FA02F36A
:1004B00040EA030021FA04F345EA030130BDC4F128
:1004C0000C04C4F1200220FA02F001FA04F340EA1D
:1004D0000300294630BD21FA04F0294630BD94F0CE
:1004E000000F83F4801306BF81F480110134013DB5
:1004F0004EE77FEA645C18BF7FEA655C29D094EA26
:10050000050F08BF90EA020F05D054EA000C04BFA3
:100510001946104630BD91EA030F1EBF002100208E
:1005200030BD5FEA545C05D14000494128BF41F02D
:10053000004130BD14F580043CBF01F5801130BD91
:1005400001F0004545F0FE4141F470014FF000001C
:1005500030BD7FEA645C1ABF194610467FEA655CCD
:100560001CBF0B46024650EA013406BF52EA03356F
:1005700091EA030F41F4002130BD00BF90F0000F5D
:1005800004BF0021704730B54FF4806404F1320499
:100590004FF000054FF0000150E700BF90F0000F52
:1005A00004BF0021704730B54FF4806404F1320479
:1005B00010F0004548BF40424FF000013EE700BF49
:1005C00042004FEAE2014FEA31014FEA02701FBFD9
:1005D00012F07F4393F07F4F81F06051704732F00B
:1005E0007F4208BF704793F07F4F04BF41F4002162
:1005F000704730B54FF4607401F0004521F00041C0
:100600001CE700BF50EA010208BF704730B54FF049
:1006100000050AE050EA010208BF704730B511F04A
:10062000004502D5404261EB41014FF4806404F182
:1006300032045FEA915C3FF4D8AE4FF003025FEA08
:10064000DC0C18BF03325FEADC0C18BF033202EB8C
:10065000DC02C2F1200300FA03FC20FA02F001FAE6
:1006600003FE40EA0E0021FA02F11444BDE600BF89
:1006700070B54FF0FF0C4CF4E06C1CEA11541DBF38
:100680001CEA135594EA0C0F95EA0C0F00F0DEF803
:100690002C4481EA030621EA4C5123EA4C5350EAE8
:1006A000013518BF52EA033541F4801143F4801339
:1006B00038D0A0FB02CE4FF00005E1FB02E506F0CA
:1006C0000042E0FB03E54FF00006E1FB03569CF01F
:1006D000000F18BF4EF0010EA4F1FF04B6F5007F25
:1006E00064F5407404D25FEA4E0E6D4146EB060697
:1006F00042EAC62141EA55514FEAC52040EA5E5020
:100700004FEACE2EB4F1FD0C88BFBCF5E06F1ED8C9
:10071000BEF1004F08BF5FEA500E50F1000041EB00
:10072000045170BD06F0004646EA010140EA0200AD
:1007300081EA0301B4EB5C04C2BFD4EB0C0541EACF
:10074000045170BD41F480114FF0000E013C00F3E4
:10075000AB8014F1360FDEBF002001F0004170BD08
:10076000C4F10004203C35DA0C341BDC04F1140421
:10077000C4F1200500FA05F320FA04F001FA05F2AD
:1007800040EA020001F0004221F0004110EBD3707A
:1007900021FA04F642EB06015EEA430E08BF20EAA6
:1007A000D37070BDC4F10C04C4F1200500FA04F349
:1007B00020FA05F001FA04F240EA020001F00041DB
:1007C00010EBD37041F100015EEA430E08BF20EA4E
:1007D000D37070BDC4F1200500FA05F24EEA020E96
:1007E00020FA04F301FA05F243EA020321FA04F0C5
:1007F00001F0004121FA04F220EA020000EBD3707C
:100800005EEA430E08BF20EAD37070BD94F0000F7B
:100810000FD101F00046400041EB010111F4801FAF
:1008200008BF013CF7D041EA060195F0000F18BF60
:10083000704703F00046520043EB030313F4801F9C
:1008400008BF013DF7D043EA0603704794EA0C0F56
:100850000CEA135518BF95EA0C0F0CD050EA41066C
:1008600018BF52EA4306D1D181EA030101F00041E9
:100870004FF0000070BD50EA410606BF1046194611
:1008800052EA430619D094EA0C0F02D150EA01361D
:1008900013D195EA0C0F05D152EA03361CBF10465E
:1008A00019460AD181EA030101F0004141F0FE41FD
:1008B00041F470014FF0000070BD41F0FE4141F481
:1008C000780170BD70B54FF0FF0C4CF4E06C1CEA81
:1008D00011541DBF1CEA135594EA0C0F95EA0C0F36
:1008E00000F0A7F8A4EB050481EA030E52EA0335F1
:1008F0004FEA013100F088804FEA03334FF0805512
:1009000045EA131343EA12634FEA022245EA11153E
:1009100045EA10654FEA00260EF000419D4208BFEF
:10092000964244F1FD0404F5407402D25B084FEA9C
:100930003202B61A65EB03055B084FEA32024FF448
:1009400080104FF4002CB6EB020E75EB030E22BFA5
:10095000B61A754640EA0C005B084FEA3202B6EB65
:10096000020E75EB030E22BFB61A754640EA5C0014
:100970005B084FEA3202B6EB020E75EB030E22BFA4
:10098000B61A754640EA9C005B084FEA3202B6EBA5
:10099000020E75EB030E22BFB61A754640EADC0064
:1009A00055EA060E18D04FEA051545EA16754FEAC6
:1009B00006164FEAC30343EA52734FEAC2025FEAE4
:1009C0001C1CC0D111F4801F0BD141EA00014FF073
:1009D00000004FF0004CB6E711F4801F04BF014344
:1009E0000020B4F1FD0C88BFBCF5E06F3FF6AFAE60
:1009F000B5EB030C04BFB6EB020C5FEA500C50F1F0
:100A0000000041EB045170BD0EF0004E4EEA113172
:100A100014EB5C04C2BFD4EB0C0541EA045170BD79
:100A200041F480114FF0000E013C90E645EA060EBD
:100A30008DE60CEA135594EA0C0F08BF95EA0C0FEB
:100A40003FF43BAF94EA0C0F0AD150EA01347FF433
:100A500034AF95EA0C0F7FF425AF104619462CE70A
:100A600095EA0C0F06D152EA03353FF4FDAE10466D
:100A7000194622E750EA410618BF52EA43067FF4BE
:100A8000C5AE50EA41047FF40DAF52EA43057FF44E
:100A9000EBAE12E753B94AB9002908BF00281CBFC2
:100AA0004FF0FF314FF0FF3000F074B9ADF1080C9A
:100AB0006DE904CE00F006F8DDF804E0DDE902237C
:100AC00004B070472DE9F047089E0D46044688465D
:100AD000002B4DD18A42944668D9B2FA82F252B1C3
:100AE00001FA02F3C2F1200120FA01F10CFA02FC32
:100AF00041EA030894404FEA1C45210CB8FBF5FE7F
:100B00001FFA8CF705FB1E8341EA03430EFB07F136
:100B100099420BD91CEB03030EF1FF3080F01E81CC
:100B2000994240F21B81AEF1020E63445B1AA4B2FB
:100B3000B3FBF5F005FB103344EA034400FB07F771
:100B4000A7420AD91CEB040400F1FF3380F00881AE
:100B5000A74240F2058164440238E41B40EA0E409B
:100B600000211EB1D4400023C6E90043BDE8F08750
:100B70008B4208D9002E00F0EE800021C6E9000566
:100B80000846BDE8F087B3FA83F100294AD1AB42A9
:100B900002D3824200F2F980841A65EB030301203C
:100BA0009846002EE2D0C6E90048DFE702B9FFDE32
:100BB000B2FA82F2002A40F09180A1EB0C054FEAD4
:100BC0001C471FFA8CFE0121B5FBF7F307FB1350FE
:100BD000250C45EA00450EFB03F0A84208D91CEBA2
:100BE000050503F1FF3802D2A84200F2CB8043464C
:100BF0002D1AA4B2B5FBF7F007FB105544EA0544E3
:100C00000EFB00FEA64508D91CEB040400F1FF35DD
:100C100002D2A64500F2BB802846A4EB0E0440EAAF
:100C200003409EE7C1F120078B4022FA07FC4CEA03
:100C3000030C20FA07F405FA01F31C43FD404FEAC8
:100C40001C4900FA01F3B5FBF9F8200C1FFA8CFEE1
:100C500009FB185540EA054508FB0EF0A84202FAC8
:100C600001F20BD91CEB050508F1FF3A80F08880F2
:100C7000A84240F28580A8F1020865442D1AA4B26A
:100C8000B5FBF9F009FB105544EA054500FB0EFEE3
:100C9000AE4508D91CEB050500F1FF346CD2AE451A
:100CA0006AD90238654440EA0840A0FB0294A5EBEB
:100CB0000E05A542C846A64656D353D05EB1B3EB47
:100CC000080265EB0E0505FA07F722FA01F3CD409D
:100CD0001F43C6E900750021BDE8F087C2F120037B
:100CE00020FA03F10CFA02FC25FA03F395400D43B8
:100CF0004FEA1C471FFA8CFEB3FBF7F107FB1130DC
:100D00002B0C43EA004301FB0EF0984204FA02F474
:100D100008D91CEB030301F1FF382FD298422DD9DB
:100D2000023963441B1AADB2B3FBF7F007FB103373
:100D300045EA034500FB0EF3AB4208D91CEB050561
:100D400000F1FF3816D2AB4214D902386544ED1ACF
:100D500040EA014138E73146304607E78646E5E696
:100D60001846FAE64B45A9D2B9EB020864EB0C0E23
:100D70000138A3E74046EAE7204694E74146D1E739
:100D8000D0467BE7023B654432E7084609E7644406
:100D9000023842E7704700BF844641EA000313F07F
:100DA00003036DD1403A41D351F8043B40F8043B72
:100DB00051F8043B40F8043B51F8043B40F8043B35
:100DC00051F8043B40F8043B51F8043B40F8043B25
:100DD00051F8043B40F8043B51F8043B40F8043B15
:100DE00051F8043B40F8043B51F8043B40F8043B05
:100DF00051F8043B40F8043B51F8043B40F8043BF5
:100E000051F8043B40F8043B51F8043B40F8043BE4
:100E100051F8043B40F8043B51F8043B40F8043BD4
:100E200051F8043B40F8043B403ABDD2303211D374
:100E300051F8043B40F8043B51F8043B40F8043BB4
:100E400051F8043B40F8043B51F8043B40F8043BA4
:100E5000103AEDD20C3205D351F8043B40F8043B74
:100E6000043AF9D2043208D0D2071CBF11F8013B72
:100E700000F8013B01D30B8803806046704700BF38
:100E8000082A13D38B078DD010F003038AD0C3F147
:100E90000403D21ADB071CBF11F8013B00F8013B29
:100EA00080D331F8023B20F8023B7BE7043AD9D3E8
:100EB000013A11F8013B00F8013BF9D20B780370BD
:100EC0004B7843708B788370604670470000000059
:100ED0000000000000000000000000000000000012
:100EE0000000000000000000000000000000000002
:100EF00000000000000000000000000000000000F2
:100F000090F800F06DE9024520F007016FF0000C49
:100F100010F0070491F820F040F049804FF00004F1
:100F20006FF00700D1E9002391F840F000F10800CC
:100F300082FA4CF2A4FA8CF283FA4CF3A2FA8CF304
:100F40004BBBD1E9022382FA4CF200F10800A4FA6B
:100F50008CF283FA4CF3A2FA8CF3E3B9D1E90423BF
:100F600082FA4CF200F10800A4FA8CF283FA4CF3F6
:100F7000A2FA8CF37BB9D1E9062301F1200182FAB0
:100F80004CF200F10800A4FA8CF283FA4CF3A2FAB6
:100F90008CF3002BC6D0002A04BF04301A4612BAC4
:100FA000B2FA82F2FDE8024500EBD2007047D1E9C7
:100FB000002304F00305C4F100004FEAC50514F056
:100FC000040F91F840F00CFA05F562EA05021CBF27
:100FD00063EA050362464FF00004A9E70000000041
:100FE00001F0FF01102A2BDB10F0070F08D010F8DA
:100FF000013B013A8B422DD010F0070F42B3F6D1DE
:10100000F0B441EA012141EA014122F007047FF0F6
:1010100000070023F0E80256083C85EA010586EA4D
:10102000010685FA47F5A3FA87F586FA47F6A5FA89
:1010300087F68EB9EED1F0BC01F0FF0102F0070295
:1010400032B110F8013B013A83EA010313B1F8D140
:101050000020704701387047002D06BF3546033821
:10106000073815F0010F07D1013015F4807F02BF5A
:10107000013015F4C03F0130F0BC0138704700BFAB
:101080004FF0FF3C06E000BF4FF0010C02E000BF54
:101090004FF0010C4DF804CD4FEA410C7FEA6C5C37
:1010A0004FEA430C18BF7FEA6C5C1BD001B050EADA
:1010B000410C0CBF52EA430C91EA030F02BF90EAC5
:1010C000020F0020704710F1000F91EA030F58BF84
:1010D000994208BF90422CBFD8176FEAE37040F0E6
:1010E000010070474FEA410C7FEA6C5C02D150EA84
:1010F000013C07D14FEA430C7FEA6C5CD6D152EA3F
:10110000033CD3D05DF8040B704700BF8446104603
:1011100062468C461946634600E000BF01B5FFF702
:10112000B7FF002848BF10F1000F01BD4DF808EDD2
:10113000FFF7F4FF0CBF012000205DF808FB00BFA3
:101140004DF808EDFFF7EAFF34BF012000205DF8FD
:1011500008FB00BF4DF808EDFFF7E0FF94BF01204A
:1011600000205DF808FB00BF4DF808EDFFF7CEFF4B
:1011700094BF012000205DF808FB00BF4DF808ED8A
:10118000FFF7C4FF34BF012000205DF808FB00BF5B
:101190004FEA410C7FEA6C5C02D150EA013C0AD173
:1011A0004FEA430C7FEA6C5C02D152EA033C02D165
:1011B0004FF0000070474FF0010070474FEA4102C6
:1011C00012F5001215D211D56FF47873B3EB625299
:1011D00012D94FEAC12343F0004343EA505311F0C0
:1011E000004F23FA02F018BF404270474FF0000052
:1011F000704750EA013005D111F0004008BF6FF090
:10120000004070474FF00000704700BF82B00021DF
:1012100000910B4B1A6B42F080021A631A6B02F0BA
:1012200080020092009A01911A6B42F001021A6347
:101230001B6B03F001030193019B02B0704700BFD9
:101240000038024008B5054804F0D0F901210448EF
:1012500004F06AF9322003F0A1F8F7E798B4000827
:10126000A4B4000808B5054804F0C0F901210448F9
:1012700004F05AF9642003F091F8F7E7B0B40008DD
:10128000A4B4000800B583B001904FF6FF730122AB
:1012900001A9034800F0A9FF019803B05DF804FB21
:1012A000F809002030B589B004461D46124B1B6872
:1012B00007934FF00003ADF808101146059804F0AD
:1012C0009DF901950C9B049301A9204602F076FF3D
:1012D000044648B9084B1A68079B5A404FF0000370
:1012E00007D1204609B030BD0146044804F01CF97E
:1012F000F0E701F081F800BF0C000020BCB400084A
:1013000072B6FEE700B595B02C4B1B6813934FF0F7
:1013100000033022002107A804F0B4F80023029350
:1013200003930493059306930093254A116C41F0AF
:1013300080511164126C02F080520092009A019365
:10134000204A136823F4404343F4004313601368B6
:1013500003F440430193019B012307934FF480332F
:10136000089302220D924FF480030E9304230F93EF
:10137000542110911192129307A800F0FFFAB8B906
:101380000F23029302210391002304934FF4805210
:101390000592069302A800F057FD58B9074B1A684A
:1013A000139B5A404FF0000306D115B05DF804FBC3
:1013B000FFF7A6FFFFF7A4FF01F01EF80C000020C6
:1013C000003802400070004000B583B000F078F9AA
:1013D000FFF798FFFFF71AFF00F0BEF8134804F07C
:1013E00005F901F0EDF84FF400730093104B114A2A
:1013F00004211148FFF756FF78B94FF400730093AA
:101400000E4B0F4A04210F48FFF74CFF48B901F07B
:10141000D3F80D4804F0EAF8FBE70C4804F0E6F8CE
:10142000EBE70A4804F0E2F8F1E700BFD8B400089F
:1014300065120008E0B40008EC090020451200081D
:1014400000B50008F009002008B50008E8B400085D
:1014500082B0002100910B4B5A6C42F480425A64D6
:101460005A6C02F480420092009A01911A6C42F088
:1014700080521A641B6C03F080530193019B02B0ED
:10148000704700BF00380240FEE7FEE7FEE7FEE7D8
:10149000FEE7704770470120704708B503F0C8FFAA
:1014A000162303604FF0FF3008BD08B54FF0FF3141
:1014B000FFF7F3FFFEE770B50C461646002506E081
:1014C000AFF30080214601F8010B01350C46B5420F
:1014D000F6DB304670BD70B50C461646002504E0BC
:1014E00014F8010BFFF7CEFE0135B542F8DB3046AC
:1014F00070BD4FF0FF3070474FF400534B60002039
:1015000070470120704700207047000010B5034667
:101510000C4A0D490D48006840B10C48006803446E
:10152000521A934206D8094A136010BD0748084C66
:101530000460F2E703F07CFF0C2303604FF0FF3000
:10154000F3E700BF0080012000040000F409002040
:10155000609C00207047000008B50A480A4B0360F1
:101560004FF4E133436000238360C36003610C22C6
:1015700042618361C36100F009FE00B908BDFFF755
:10158000BFFEFBE7F80900200010014000B589B05C
:10159000214B1B6807934FF0000300230293039332
:1015A000049305930693026803F1804303F588339F
:1015B0009A4209D0184B1A68079B5A404FF0000313
:1015C00027D109B05DF804FB0021009103F59433A5
:1015D0005A6C42F010025A645A6C02F010020092E7
:1015E000009A01911A6B42F001021A631B6B03F01F
:1015F00001030193019B4FF4C06302930223039301
:10160000032305930723069302A9044800F0D6F8A4
:10161000D0E700F0F1FE00BF0C0000200000024007
:10162000DFF834D00D480E490E4A002302E0D458AA
:10163000C4500433C4188C42F9D30B4A0B4C00231A
:1016400001E013600432A242FBD3FFF783FF03F0F3
:10165000F5FEFFF7B9FE7047008001200000002072
:10166000D0090020BCC20008D00900205C9C0020EA
:10167000FEE7000010B504460E4B18784FF47A735D
:10168000B3FBF0F30C4A1068B0FBF3F000F082F803
:1016900068B90F2C01D901200AE0002221464FF041
:1016A000FF3000F03FF8054B1C60002000E00120F7
:1016B00010BD00BF04000020000000200800002032
:1016C00008B50B4B1A6842F400721A601A6842F4AB
:1016D00080621A601A6842F480721A60032000F077
:1016E0000FF80F20FFF7C6FFFFF7B2FE002008BD7E
:1016F000003C0240014B1868704700BF3C0A0020C4
:10170000074AD36823F4E0631B041B0C000200F4B7
:10171000E060034343F0BF6343F40033D36070479A
:1017200000ED00E000B5194BDB68C3F30223C3F101
:10173000070CBCF1040F28BF4FF0040C03F1040E9A
:10174000BEF1060F18D9033B4FF0FF3E0EFA0CFC1A
:1017500021EA0C0199400EFA03F322EA030319432C
:1017600000280BDB0901C9B200F1604000F56140BF
:1017700080F800135DF804FB0023E5E700F00F009C
:101780000901C9B2024B1954F4E700BF00ED00E0B3
:1017900014ED00E00138B0F1807F0BD24FF0E02370
:1017A0005861054AF02182F8231000209861072231
:1017B0001A6170470120704700ED00E000230F2BF5
:1017C00000F2D28070B582B060E085685E000324CC
:1017D000B44025EA0405CC68B4402C4384604568D5
:1017E00025EA02054C68C4F300129A402A4342607D
:1017F0005AE0DC08083450F8246003F00702950032
:101800000F22AA4026EA020E0A69AA4042EA0E0204
:1018100040F824205CE0042200E0002202FA0EF2EC
:101820002A430234514D45F82420514A94686FEA06
:101830000C0224EA0C054E6816F4801F01D04CEA15
:1018400004054B4CA560E46802EA04054E6816F4F2
:10185000001F01D04CEA0405454CE560646802EACB
:1018600004054E6816F4003F01D04CEA0405404CD4
:101870006560246822404D6815F4803F01D04CEA31
:1018800004023B4C226001330F2B6BD801229A409B
:101890000C6804EA020C32EA0404F4D14C6804F047
:1018A0000304013C012C90D94A6802F00302032A88
:1018B00009D0C4685D000322AA4024EA02048A68B1
:1018C000AA402243C2604A6802F00302022A90D072
:1018D00004684FEA430E032202FA0EF224EA0204DD
:1018E0004A6802F0030202FA0EF2224302604A68DA
:1018F00012F4403FC7D0002201921E4A546C44F4B7
:1019000080445464526C02F480420192019A9C0813
:10191000A51C164A52F8255003F003024FEA820E26
:101920000F2202FA0EF225EA0205134A90423FF412
:1019300074AF02F5806290420ED002F58062904250
:101940000CD002F5806290420AD002F5806290428B
:101950003FF461AF072261E701225FE702225DE702
:1019600003225BE702B070BD704700BF0038014042
:10197000003C01400038024000000240002800F016
:10198000E08170B582B00446036813F0010F3BD0CC
:101990009F4B9B6803F00C03042B2CD09C4B9B6843
:1019A00003F00C03082B21D06368B3F5803F4FD0C0
:1019B000B3F5A02F52D0964B1A6822F480321A60E9
:1019C0001A6822F480221A606368002B50D0FFF757
:1019D00091FE05468E4B1B6813F4003F14D1FFF7B0
:1019E00089FE401B6428F5D90320B1E1884B5B6870
:1019F00013F4800FD8D0864B1B6813F4003F03D03C
:101A00006368002B00F09F81236813F0020F54D00D
:101A10007F4B9B6813F00C0F3ED07D4B9B6803F00F
:101A20000C03082B33D0E368002B68D0794B0122DC
:101A30001A60FFF75FFE0546754B1B6813F0020F37
:101A400054D1FFF757FE401B0228F5D903207FE150
:101A50006F4A136843F480331360B5E76C4B1A6820
:101A600042F480221A601A6842F480321A60ABE7AE
:101A7000FFF740FE0546664B1B6813F4003FC3D0DA
:101A8000FFF738FE401B6428F5D9032060E1604B66
:101A90005B6813F4800FC6D15D4B1B6813F0020F17
:101AA00003D0E368012B40F05081594A136823F0BA
:101AB000F803216943EAC1031360236813F0080F98
:101AC00042D063696BB3534B0122C3F8802EFFF7FA
:101AD00011FE05464E4B5B6F13F0020F34D1FFF73A
:101AE00009FE401B0228F5D9032031E1484A13685A
:101AF00023F0F803216943EAC1031360DDE7454B96
:101B000000221A60FFF7F6FD0546414B1B6813F0F3
:101B1000020FD2D0FFF7EEFD401B0228F5D90320BB
:101B200016E13C4B0022C3F8802EFFF7E3FD05468B
:101B3000374B5B6F13F0020F06D0FFF7DBFD401B46
:101B40000228F5D9032003E1236813F0040F77D0AE
:101B50002F4B1B6C13F0805F33D1002301932C4B70
:101B60001A6C42F080521A641B6C03F0805301938C
:101B7000019B0125284B1B6813F4807F23D0A368A9
:101B8000012B34D0052B38D0214B1A6F22F00102E3
:101B90001A671A6F22F004021A67A368002B3DD05F
:101BA000FFF7A8FD06461A4B1B6F13F0020F46D134
:101BB000FFF7A0FD801B41F288339842F3D9032040
:101BC000C6E00025D6E7144A136843F48073136017
:101BD000FFF790FD0646104B1B6813F4807FCED1B3
:101BE000FFF788FD801B0228F5D90320B0E0084AE2
:101BF000136F43F001031367CFE7054B1A6F42F0F1
:101C000004021A671A6F42F001021A67C5E700BFA3
:101C1000003802400000474200700040FFF76AFDB4
:101C20000646524B1B6F13F0020F08D0FFF762FD00
:101C3000801B41F288339842F3D9032088E0EDB944
:101C4000A369002B00F08380484A926802F00C02DE
:101C5000082A51D0022B17D0454B00221A66FFF7F5
:101C600049FD0446414B1B6813F0007F42D0FFF74B
:101C700041FD001B0228F5D9032069E03B4A136CA3
:101C800023F080531364DBE7394B00221A66FFF719
:101C900031FD0546354B1B6813F0007F06D0FFF77A
:101CA00029FD401B0228F5D9032051E0E369226A8F
:101CB0001343626A43EA8213A26A5208013A43EA72
:101CC0000243E26A43EA0263284A5360284B012236
:101CD0001A66FFF70FFD0446244B1B6813F0007FC4
:101CE00006D1FFF707FD001B0228F5D903202FE0DE
:101CF00000202DE000202BE0012B2BD01B4B5B683C
:101D000003F48001E269914226D103F03F02216A87
:101D10008A4223D1616A47F6C0721A40B2EB811F32
:101D20001ED103F44031A26A5208013AB1EB024FCE
:101D300018D103F07063E26AB3EB026F14D1002094
:101D400006E001207047012002E0012000E00020B1
:101D500002B070BD0120FBE70120F9E70120F7E7A1
:101D60000120F5E70120F3E70120F1E70038024008
:101D70000000474208B5314B9B6803F00C03042B6D
:101D800057D0082B57D12D4B5A6802F03F025B68A1
:101D900013F4800F2AD0294B5968C1F3881C4FEAED
:101DA0004C11B1EB0C006EEB0E0E4FEA8E1343EAB2
:101DB00090638101091A63EB0E03DB0043EA517360
:101DC000C90011EB0C0C43F10003590200234FEA48
:101DD0004C2041EADC51FEF75DFE184B5B68C3F313
:101DE000014301335B00B0FBF3F025E0134B59686E
:101DF000C1F3881C4FEA4C11B1EB0C006EEB0E0ED8
:101E00004FEA8E1343EA90638101091A63EB0E03D4
:101E1000DB0043EA5173C90011EB0C0C43F10003E2
:101E2000990200234FEA8C2041EA9C51FEF732FED2
:101E3000D3E7034800E0034808BD00BF0038024074
:101E400000127A000024F400002800F09B8070B596
:101E50000D4604464F4B1B6803F007038B4208D224
:101E6000CBB24C4A1370136803F007038B4240F067
:101E70008B80236813F0020F17D013F0040F04D0E7
:101E8000454A936843F4E0539360236813F0080FC6
:101E900004D0414A936843F4604393603E4A936898
:101EA00023F0F003A1680B439360236813F0010F44
:101EB00032D06368012B21D09A1E012A25D9364AD7
:101EC000126812F0020F61D033498A6822F00302CF
:101ED00013438B60FFF70EFC06462F4B9B6803F005
:101EE0000C036268B3EB820F16D0FFF703FC801B74
:101EF00041F288339842F0D9032042E0264A126822
:101F000012F4003FE0D101203BE0234A126812F0B6
:101F1000007FD9D1012034E01E4B1B6803F007037A
:101F2000AB4207D9EAB21B4B1A701B6803F00703D8
:101F3000AB422DD1236813F0040F06D0164A9368E4
:101F400023F4E053E1680B439360236813F0080F18
:101F500007D0114A936823F46043216943EAC1031F
:101F60009360FFF707FF0C4B9B68C3F303130B4A07
:101F7000D35CD8400A4B18600A4B1868FFF77AFB0D
:101F8000002070BD012070470120FAE70120F8E72A
:101F90000120F6E7003C02400038024010B500087E
:101FA0000000002008000020014B1868704700BFA7
:101FB0000000002008B5FFF7F7FF044B9B68C3F350
:101FC0008223034AD35CD84008BD00BF00380240DA
:101FD00020B5000808B5FFF7E7FF044B9B68C3F383
:101FE0004233034AD35CD84008BD00BF00380240EA
:101FF00020B5000838B504460268136923F440533D
:10200000C1680B4313618368026913434269134338
:10201000C2691A430168CB6823F4164323F00C030A
:102020001343CB600268536923F4407381690B4307
:1020300053610368314A934206D002F580629342AD
:1020400002D0FFF7B7FF01E0FFF7C4FFE369B3F584
:10205000004F29D00021031849411B1841F100010C
:10206000C90041EA5371DB00181863684FEA830224
:102070004FEA937341F10001FEF70CFD204DA5FBE3
:1020800000325109642303FB11031B013233A5FB0A
:1020900003235B0903F0F00202EB011203F00F03CC
:1020A000216813448B6038BD0023021843EB030101
:1020B000121841F10001C90041EA5271D200101812
:1020C00041F10001626892185B41FEF7E3FC0C4DA0
:1020D000A5FB00325109642303FB1103DB003233FB
:1020E000A5FB03235B095A0002F4F87202EB01120C
:1020F00003F00703216813448B60D4E7001001400C
:102100001F85EB512DE9F84305460F4616469946C3
:10211000DDF820802C68246837EA04030CBF4FF0F8
:10212000010C4FF0000CB4452DD1B8F1FF3FF1D0B8
:10213000B8F1000F05D0FFF7DDFAA0EB090040452C
:10214000E8D92A6802F10C0353E8003F23F4D07366
:102150000C3242E800310029F3D12A6802F114035D
:1021600053E8003F23F00103143242E80031002914
:10217000F3D1202385F83D3085F83E30002385F8E3
:102180003C30032000E00020BDE8F88358B310B5D0
:10219000044690F83D300BB3242384F83D30226888
:1021A000D36823F40053D3602046FFF723FF22684F
:1021B000136923F4904313612268536923F02A03BF
:1021C00053612268D36843F40053D3600020206435
:1021D000202384F83D3084F83E3010BD80F83C3038
:1021E000FFF7D4F9D8E7012070472DE9F04182B01C
:1021F0001E4690F83D30DBB2202B54D104460D46EC
:102200009046002953D0002A53D090F83C30012B3F
:1022100051D0012380F83C3000230364212380F84F
:102220003D30FFF767FA0746A4F82480A4F826801B
:10223000A368B3F5805F05D04FF00008002384F851
:102240003C3012E0236913B14FF00008F6E7A846CE
:102250000025F3E738F8023B2268C3F30803536014
:10226000E28C92B2013A92B2E284E38C9BB273B1F7
:1022700000963B46002280212046FFF743FFE0B94D
:10228000002DE7D015F8012B23685A60E8E7009687
:102290003B46002240212046FFF734FF78B9202337
:1022A00084F83D3000E0022002B0BDE8F08101205A
:1022B000FAE70120F8E70220F6E70320F4E703201D
:1022C000F2E708B5FDF7C7FFFEE7994207D308B567
:1022D00094461A46614603F0D5F8002008BD222036
:1022E000704750B108B58C4611461A4639B194452D
:1022F00007D3FEF751FD002008BD162070471620B9
:10230000FAE72220F8E7000008B500F07DF807485A
:1023100000F096F800B908BD022000F0E7F80028A8
:10232000F9D1034803F062F9F5E700BFF143000873
:1023300028B5000870B506460D4614460B46CA225D
:102340002046FFF7C2FF002835D14FF0CC33236081
:102350002C44A4F144004FF0043344F8443C4FF0C3
:10236000053343604FF0063383604FF00733C3609B
:102370004FF0083303614FF0093343614FF01033DE
:1023800083614FF01133C3610023036246624FF053
:10239000013383624FF00233C3624FF003330363B0
:1023A0004FF012334363074B8363074BC3634FF014
:1023B0008073036470BD7C220449054803F0B4F8BF
:1023C000C3E700BFC32200084543000858B5000812
:1023D0003CB5000808B5FDF73EFF00F027FEFDF70D
:1023E0000FFF002008BD0000024B1868003818BF1E
:1023F00001207047400A002008B57146014800F0EE
:10240000C1F800BF68B500080B49CA6822F4E06251
:102410001204120C094B1343CB604FF0E023D3F8A6
:10242000242D42F4E022C3F8242DD3F8142D42F0D9
:102430001002C3F8142D704700ED00E00007FA0504
:10244000094B0A4A1A600A4B0A4A1A604FF0E02305
:10245000094A5A61094AF02182F823100020986144
:1024600007221A61704700BFFC0B002000BD010568
:10247000F80B002020480100FEFFFF0000ED00E007
:102480004FF0E0231A6922F001021A610138586105
:1024900000229A611A6942F001021A61704710B570
:1024A0000446FDF7D8FE4FF0E0225369236094699B
:1024B0001C1BFDF7D8FE2046002110BDBFF34F8F37
:1024C00030BFBFF36F8F00207047000038B505465E
:1024D000FDF7C1FE0446044B1B680BB12846984724
:1024E0002046FDF7C0FE38BD440A002038B502285A
:1024F00014DC0446831E032B02D90025284638BD70
:102500000120FFF7F3FF054608B10025F6E7044B6D
:1025100053F82410034803F007F8EFE70125EDE72F
:10252000CCB500089CB50008024630B10020134627
:1025300043F8040B9360536070470148704700BF35
:10254000061C000290B138B50546FDF784FE2B1D30
:10255000AA68934206D10024AC606C60FDF783FE4C
:10256000204638BDFDF77FFE0148FAE70148704775
:10257000081C0002061C0002014B0D221A60704765
:10258000E80B00200FB400B583B004AB53F8044B44
:10259000084A126801924FF0000200930220FFF7F0
:1025A000A5FF08B1FFF78DFE0099204602F0BCFFA1
:1025B000F8E700BF0C00002008B5FFF70BFF08BDCF
:1025C00010B50120FFF792FFF8B1FFF7D5FF02F039
:1025D00011FF0446E8B9FFF797FE01F09BFC0446A3
:1025E00010BB01F05DF80446B8B900F043F80446AA
:1025F00098B900F007F90446F8B901F0D5FB044694
:1026000020BB01F09DFD044607E0154802F0EEFFF7
:10261000DBE70220FFF76AFF08B1204610BD214624
:10262000104802F081FFF8E70220FFF75FFF002863
:10263000F3D10D4802F0DAFFEFE70220FFF756FF73
:102640000028EAD1094802F0D1FFE6E70220FFF7AF
:102650004DFF0028E1D1064802F0C8FFDDE700BFCA
:10266000E4B50008FCB5000818B600082CB6000850
:1026700040B6000808B5164B5B601B60F021154B97
:10268000186802F031FE144B1860F0B1002218E017
:10269000114B196802EB4203D80001EBC3035A60E7
:1026A0004FF0000C01F800C003F108000849096868
:1026B000D1F804C0C3F80CC099604B68186048603A
:1026C0000132092AE4D9002008BD0448FCE700BF14
:1026D0004C0A0020109C0020480A0020001D000227
:1026E00070B5844610461D4601F00304012C1BD032
:1026F000032C39D03CB10220FFF7F8FE78BB3E48EE
:1027000002F074FF2BE0BCF80CE00EF10102BCF803
:1027100006309A4204D00EF10103ACF80C300DE003
:102720000023ACF80C3009E0BCF80C30C3B9BCF89D
:102730000630013BACF80C30BCF80CE0DCF80020B3
:10274000BCF8083003FB0EFE02EB0E0411F0040F80
:102750001FD011F0010F18D152F80E30036070BD78
:10276000013BACF80C30E7E7BCF80EE00EF10102DB
:10277000BCF806309A4204D00EF10103ACF80E30DA
:10278000DCE70023ACF80E30D8E7036842F80E30DF
:10279000E5E711F0010F16D1043BE6583346224617
:1027A0002968FFF79EFD044608B92E60D7E702208E
:1027B000FFF79CFE0028D2D12346FB220F49104888
:1027C00002F0B2FECBE7191F2B6863500246BCF83B
:1027D00008102046FFF785FD04460028BFD00220E0
:1027E000FFF784FE0028BAD123464FF482720349D2
:1027F000034802F099FEB2E754B6000898B6000804
:1028000070B6000808B54FF48471164B186802F0D2
:102810006BFD154B186010B34FF4847300221946FA
:10282000FFF753FD114B5B601B60002313E00E4A62
:1028300012682C2101FB0322538102F11C000B4979
:102840000968D1F804C0C2F820C0D1614A6810609C
:10285000486001339BB2052BE9D9002008BD04482C
:10286000FCE700BF109C0020540A0020580A0020FA
:10287000010600022DE9F843BDF82030002A51D0AE
:102880000D4690464FF6FB7293424DD800294DD02D
:10289000002B4DD004339FB207FB01F1264B186883
:1028A00002F022FD8146002844D0FDF7D4FC234BE2
:1028B0005C689C422DD062682368136062685A602D
:1028C00000266660266024F8165C24F8147C44F820
:1028D0001C9C012324F8183C24F80C6C24F80A5C96
:1028E00024F8106C24F80E6CA4F1080344F8043C9E
:1028F00044F8083C6460246004F10803E360A360CA
:10290000FDF7B1FC34F8123CC8F800303046BDE8A1
:10291000F883FDF7A8FC4946074B186802F074FAE3
:102920000748F4E70748F2E70748F0E70748EEE70B
:102930000648ECE70648EAE7109C0020580A002009
:10294000040600020C060002030600020D06000247
:10295000020600022DE9F04F83B004460D46914671
:10296000984611F0010A0CBF4FF0010B4FF0000B1D
:10297000FDF771FC06463E4B18682C2303FB04044C
:10298000A388FBB115F0010705D1D8F800202389F1
:10299000043B9A4218D337B1D8F800202389043B6E
:1029A0009A4213D80027002F51D10AF1080334F8B6
:1029B0001330002B31D10C9B53B12E4B1B8873B1BC
:1029C0002D4F44E02D4FEEE72D4FECE72D4FEAE77A
:1029D000BAF1000F01D12C4F39E02C4F37E02C4BCE
:1029E0001B6801930AF1020004EBC0000C9904304B
:1029F00000F086FA3046FDF736FC00F041FEFDF7A8
:102A00002AFC0646019B9B8813F0400F0AD023F056
:102A10004003019A93801F4F19E00AF1080A013B15
:102A200024F81A3043464A4629462046FFF758FE06
:102A30000BF1020304EBC3031A1D986882420DD107
:102A40000BF1080B34F81B30013324F81B303046EF
:102A5000FDF709FC384603B0BDE8F08F483800F0B8
:102A60006BFA3046FDF7FFFB00F00AFEF2E700BF0D
:102A7000540A0020DC0B0020060600020A060002B1
:102A80001F060002150600021D06000216060002BF
:102A9000D40B002007060002F0B583B005460F46B0
:102AA00014461E4605280ED879B182B1136883B149
:102AB0001EB9304678B103B0F0BDFFF795FC002891
:102AC000F8D00948F6E70948F4E70948F2E708486A
:102AD000F0E70848EEE7009623463A4600212846EC
:102AE000FFF738FFE7E700BF180600020E060002F6
:102AF0000F0600021006000270B584B004460E46B0
:102B000003921D4605280CD869B172B11DB928463B
:102B100068B104B070BDFFF767FC0028F8D0084822
:102B2000F6E70848F4E70848F2E70848F0E70095B8
:102B300003AB324603212046FFF70CFFE9E700BF55
:102B4000090600020E060002120600021306000229
:102B5000014BC3E90001704718000020064B1A68BA
:102B60005B6882428B4106D3034B6FF001004FF04C
:102B7000FF31C3E9000170471000002008B50020B4
:102B8000FFF78DFC08BD0000644B1A68644B1B689E
:102B9000002B00F0C2802DE9F04104460D46614B48
:102BA0001B88002B40F08E80166B5F4B1B689E428B
:102BB00021D0976841F2C112974200DC5B4F17EBBE
:102BC000040845EBE7772046294600F067FE0346F8
:102BD0000A46804577EB020112D2B3EB080062EBA4
:102BE0000701DFF84CC184454FF0000070EB010194
:102BF0005BD3074605E0DFF83C814FF0FF37E2E7A3
:102C000000274D48016840688B4272EB000C54D29B
:102C1000C91A60EB02004FF2186C614570F10001B7
:102C20004BD31C1B62EB0505B4F1807F75F10003EB
:102C300009D3424B1B68002B3BD0204629469847BE
:102C40006FF07F4400253D4B1B6813B1002000212D
:102C500098473B4B1A685B68B3F1FF3F08BFB2F17E
:102C6000FF3F31D14FF0000CE046364A13685268FE
:102C70001A4333D0ACEB030E324900220023C1E9E2
:102C80000023A6454FF0000272EB050329D2B4EBF6
:102C90000E0065F100014FF21963984271F10003D3
:102CA00022D24FF2186011461EE043463A460127F1
:102CB000A7E76FF07F440025C5E7224B00200021E5
:102CC000C3E90001BDE8F081FFF758FF1C4A136813
:102CD0005268B0EB030C61EB0208C6E74FF0000E40
:102CE000CFE74FF21860002110EB0C0341EB080412
:102CF000114A15685268AB4274EB0202E2D23FB14E
:102D0000114A16600C4A13605460FFF7B9FBD9E70B
:102D10000D4A4FF0FF351560F4E77047D40B0020E3
:102D2000F40B0020740B0020C80B002045BE1B00D4
:102D300020480100E609FFFF10000020600A002083
:102D400018000020780B0020680B002070B58388E5
:102D500013F0040F23D1026B2E4B1B689A4215D03F
:102D6000826841F2C1139A4235DD00F14802C18800
:102D7000294B03EBC1035C68A34222D054608364F7
:102D8000254B03EBC10359680A605A60838823F01E
:102D9000AA039BB2838043F00403838070BD0120AB
:102DA000FFF794FBFDF757FA0220FFF79FFB00B1F6
:102DB000FEE71A4B40F2491219491A4802F0B4FBD7
:102DC000F6E74FF0004C2CFA01FC174D2E6846EA4E
:102DD0000C062E60D2E7154B836000F14802C188D3
:102DE0000D4B03EBC1035C68A34209D00A4B53F8B7
:102DF000313059685160836459680A605A60C5E788
:102E00004FF0004323FA01F4074D2B6823432B6056
:102E1000ECE700BFC80B0020640A002028B70008B8
:102E2000B0B60008E4B60008640B002045BE1B00E5
:102E3000838813F0040F08D0026B134B1B689A426F
:102E400004D1838823F0040383807047C188826C97
:102E5000D0F84CC0CCF80020D0F84CC0C2F804C068
:102E60000022C2648264094B03EBC1035A68934297
:102E7000E7D14FF0004323FA01F1054A136823EA32
:102E800001031360DDE700BFC80B0020640A0020C7
:102E9000640B002010B50446838813F0040F13D18F
:102EA00013F0080F0BD0C26C836C1360C26C5A60B5
:102EB0000023C3648364838823F008038380A3888A
:102EC00013F0A00F03D110BDFFF7B2FFF7E7012108
:102ED00004F1100000F0A0FCA38823F0A003A3805D
:102EE000F1E70000024B1B6800229A60704700BFA8
:102EF000D40B0020838843F020038380C160704797
:102F000010B40C4B1B689A8842F008029A8003F1B7
:102F1000480402685068D8649A6450680460546039
:102F2000B1F1FF3F04D09A8842F080029A80D960C4
:102F300010BC7047D40B002010B50446C26C836CE3
:102F40001360C26C5A600023C3648364838823F0D7
:102F500008039BB2838013F0800F04D1A38813F081
:102F6000120F09D010BD0121103000F055FCA388CC
:102F700023F08003A380F1E72046FFF7E7FEF1E7A7
:102F800008B5FFF7E3FE08BD18B1034A1060002042
:102F900070470120704700BF6C0B002008B500236C
:102FA00007E0104901EBC302526041F833200133BE
:102FB0009BB21F2BF5D90C4B00221A60012000F0A8
:102FC00053FC0A4B186050B100F0A0FB084B6FF0A7
:102FD00001004FF0FF31C3E90001002008BD0120CE
:102FE000FCE700BF640A0020640B0020700B002087
:102FF00010000020094B1B683BB1B3FA83F3084A69
:1030000002EBC303586848387047064B1868064BF4
:103010001B68C3EB0313DA0010447047640B0020F5
:10302000640A0020E40B0020C80B00202DE9F041C9
:10303000FDF711F9FFF7DEFF0446838843F0100324
:1030400083806F4B586018606E4B01221A60FFF747
:1030500095FDFFF77DFD6C4B1A685B68B3F1FF3F90
:1030600008BFB2F1FF3F2DD100200146206261620E
:103070002046FFF7DDFE654B6FF001004FF0FF319A
:10308000C3E90001624B4FF0FF321A60266A656A9D
:10309000276BA368F41845EBE3783046294600F027
:1030A000FDFB844278EB010315D2021B61EB0803A0
:1030B000DFF860C194454FF0000272EB03035ED36A
:1030C00090460AE0FFF75AFD4F4A13685268C01A4B
:1030D00061EB0201CAE74FF000084C4A13685268DE
:1030E000984271EB020453D21B1A62EB01024FF2B9
:1030F0001864A34272F100034AD3841B61EB0505F7
:10310000B4F1807F75F1000309D3434B1B68002B9A
:103110003AD02046294698476FF07F4400253E4B21
:103120001B6813B1002000219847374B1A685B6871
:10313000B3F1FF3F08BFB2F1FF3F34D100231E4679
:1031400036490A684968114336D09A1ADFF8CCC06C
:1031500000200021CCE900011046A2424FF00002FD
:10316000AA412BD2201A65F100014FF21962904258
:1031700071F1000225D24FF21860002121E02046B3
:1031800041464FF00108A8E76FF07F440025C6E7ED
:10319000224B00200021C3E900010120FFF7A6F91E
:1031A00048B3BDE8F081FFF7E9FC174E3368766855
:1031B000C31A61EB0606C3E70022CDE74FF21860A1
:1031C0000021C31841EB0606104C25686468AB4229
:1031D00076EB0402E1D2B8F1000F07D00C4C276067
:1031E0000A4C23606660FFF74BF9D6E7084C4FF0B6
:1031F000FF352560F4E70A4802F0F8F9D1E700BF8F
:10320000D40B0020F40B0020180000201000002038
:10321000680B002020480100600A0020780B002085
:1032200000B700082DE9F04383B0944B1C68944B21
:103230001A685B68B3F1FF3F08BFB2F1FF3F5AD194
:1032400000231946226A606A934271EB00005BD347
:103250009A1A256B8B480068854202D0A068821AB2
:10326000A26023626162A38813F0A00F5DD113F006
:103270000B0F65D0FFF7BEFE0546804B58608442B9
:1032800062D0A38823F01003A380838843F0100347
:103290008380D4E90823C0E908234FF001092846B8
:1032A000FFF7C6FDD5F83080764B1B6898454ED0A9
:1032B0002E6A6F6AAB68F61847EBE377226B724BA6
:1032C0001B689A4247D02C6A6D6A2046294600F056
:1032D000E5FA864277EB010345D2821B61EB0703D7
:1032E000DFF8A8C194454FF0000272EB0303C0F071
:1032F0008D80164638E0FFF741FC614A136852683A
:10330000C31A61EB02019DE70120FFF7DFF8FCF72C
:10331000A2FF0220FFF7EAF800B1FEE75C4B88222B
:103320005C495D4802F000F9F7E7D4E90823012180
:103330000191E168009104F1100000F0FBF999E7B8
:103340002046FFF703FD95E74FF00009A7E7534E2E
:103350004FF0FF37B2E7524B6FF001004FF0FF31F3
:10336000C3E90001AFE700264D4A1368526898424E
:1033700071EB020752D21B1A62EB01024FF218677F
:10338000BB4272F1000349D3041B61EB0505B4F1A4
:10339000807F75F1000309D3424B1B68002B39D0A5
:1033A0002046294698476FF07F4400253D4B1B6817
:1033B00013B1002000219847314B1A685B68B3F1C4
:1033C000FF3F08BFB2F1FF3F31D100231F4636490E
:1033D0000A684968114333D09A1ADFF8CCC000203C
:1033E0000021CCE900011046A2424FF00002AA41A0
:1033F00028D2201A65F100014FF21962904271F152
:10340000000222D24FF2186000211EE030463946F9
:103410000126A9E76FF07F440025C7E7224B002073
:103420000021C3E90001484603B0BDE8F083FFF77F
:10343000A5FB134A13685768C31A61EB0707C6E771
:103440000022D0E74FF218600021C31841EB0707B4
:10345000134C25686468AB4277EB0402E3D246B1B3
:10346000094CC4F800800E4C23606760FFF708F831
:10347000D9E7054C4FF0FF352560F4E7D40B002069
:1034800018000020C80B0020680B00202048010015
:1034900014B70008B0B60008E4B60008E609FFFF5C
:1034A00010000020600A0020780B00202DE9F84F62
:1034B000654B1B680BB9BDE8F88FFCF7CCFE0746DF
:1034C000624B1A685B68B3F1FF3F08BFB2F1FF3F80
:1034D00038D1002319465E4A136051605D4B1B686A
:1034E000B3F1FF3F37D000235B4A6FF001004FF08C
:1034F000FF31C2E9000123B1584B1B88002B00F0BB
:103500008F80574B1B68524A116850681A6A5C6A70
:10351000914270EB0404C0F086808A1A1D6B514CF6
:103520002468A54202D09C68A21A9A601962586267
:103530000122474BD3E90001FFF726FB3846FCF791
:1035400092FEB8E7FFF71AFB404A13685268C31AA5
:1035500061EB0201BFE7444A138801331380434BF8
:103560001B68ABB198478046414B1E687468A64201
:103570004DD0364B1A685B68B3F1FF3F08BFB2F11C
:10358000FF3F08D14FF00009CA464FF0000B12E090
:103590004FF00008E8E7FFF7F1FA2C4A1368526889
:1035A000B0EB030961EB020AEFE713F0020F28D03A
:1035B0007468A6422DD0A268E36891457AEB0303B4
:1035C00027D3A4F110052146294B186800F0A2F872
:1035D000AB8813F0280FEBD023F0A80292B2AA8098
:1035E00013F0080FE1D042F04002AA80E96CAA6C07
:1035F0000A60E96C51600022EA64AA64EA63AA6383
:10360000D3E72846FFF7A2FB4FF0010BD0E74FF0BE
:10361000000B48EA0B0314490A88013A0A8063E761
:10362000FCF724FE8AE70120FEF750FFFCF713FEAB
:103630000220FEF75BFF00B1FEE70E4B88220E4929
:103640000E4801F071FFF7E7F40B0020180000208E
:10365000780B0020680B002010000020DC0B0020FD
:10366000D40B0020C80B0020740B00206C0B002032
:10367000700B002014B70008B0B60008E4B60008CC
:1036800008B5054B1B6813B1044B1B8803B108BD7B
:10369000FCF7ECFDFBE700BFF40B0020DC0B002087
:1036A00008B5164B5B601B604FF44071144B1868F3
:1036B00001F01AFE134B1860E8B1002317E0114A1D
:1036C0001268180102EB0311CB804FF0000C22F8B6
:1036D00000C001F10800094A1268D2F804C0C1F81C
:1036E0000CC08A6051680860506001339BB22F2B78
:1036F000E5D9002008BD0448FCE700BF840B00208A
:10370000109C0020800B0020000700024060006039
:10371000002070474A680B6813604A685A600023AB
:103720004B600B604FF0FF324FF0FF33C1E90223D3
:10373000704700002DE9F041044617461D46DDF8AC
:1037400018809DF81C10012939D0022934D12F4E40
:10375000FCF781FD4FEA98734FEA880111EB0801ED
:1037600043F10003DB0043EA5173C90011EB080188
:1037700043F100039B0143EA9163890111EB0801C6
:1037800043F100035B0143EAD1634901C91945EBE9
:103790000303A160E36073689E4212D09968DA68FF
:1037A000A568E7688D4277EB020E10D3BA4208BFD6
:1037B000A94212D0336818E01548FEF7E3FE154E13
:1037C000C6E76360266073681C60746019E063601C
:1037D000266073681C60746013E05A68626023603E
:1037E0005A6814605C600CE01B689968DA688D4266
:1037F00077EB0202F8D35A68626023605A6814605B
:103800005C60FCF730FDBDE8F08100BF8C0B002050
:103810003CB70008940B002070B50446012914D071
:1038200002290FD10D4EFCF716FD0546A068E16890
:10383000B1F1FF3F08BFB0F1FF3F08D12846FCF7C8
:1038400012FD70BD0648FEF79DFE064EEBE7FFF742
:1038500085F921463046FFF75DFFEFE78C0B00202E
:103860003CB70008940B002001280DD002280DD091
:1038700008B50220FEF73AFE08B1002008BD044852
:1038800001F0B4FE0020F9E7024870470248704793
:1038900058B70008940B00208C0B0020F8B50446A4
:1038A0000E46FCF7D8FC1A4A5368934228D09A680F
:1038B000DB684FF21865651946F10007954277EB12
:1038C000030101D215461F46124A536893421BD08A
:1038D0009968DA684FF21863E41846F100068C42E2
:1038E00076EB020301D20C461646FCF7BCFC2046E0
:1038F0003146A54277EB060301D228463946F8BD8A
:10390000054D4FF0FF37DFE7034C4FF0FF36ECE794
:10391000940B00208C0B0020E609FFFF2DE9F843F3
:1039200086460C46D968880F4FEA810C1CEB010CC7
:1039300040F10000C00040EA5C704FEACC0C1CEB88
:10394000010C40F10000800140EA9C604FEA8C1CB1
:103950001CEB010C40F1000040014FEA4C1640EA1C
:10396000DC6CD1688D0F8A00521845F10005ED001E
:1039700045EA5275D200521845F10005AD0145EAFD
:1039800092659201521845F100056D01570145EA13
:10399000D265186A596A864574EB01021BD2B0EBF6
:1039A0000E0E61EB04095EEA090214D0B6EB0E00BC
:1039B0009E6ADC6A3A462B466CEB0901FDF76AF811
:1039C000034600FB05F507FB0151A3FB0708414433
:1039D000301841EB0401BDE8F883000070B584B0F5
:1039E000244B1B6803934FF00003082300934FF010
:1039F000FF336A4601A920480068FFF74DF8002808
:103A0000F3D1009B082BF0D1019B002BEDD000F0EF
:103A1000F3FC04460D460298019B984700F0ECFC2D
:103A2000041B61EB0505022C75F10003DDD30320B7
:103A3000FEF75CFD0028D8D16A0142EAD462630136
:103A40001B1B62EB0502910041EA93719B001E195A
:103A500045EB0104E1004FF47A720023F00041EAE3
:103A60005671FDF717F802460199044801F05CFD14
:103A7000BBE700BF0C000020BC0B002070B70008A3
:103A800000B589B0124B1B6807934FF00003182351
:103A90000022194601A8FEF718FC0E4B01934FF4C3
:103AA000387304930C4B05930023ADF8083001A93B
:103AB0000A4800F083FB064B1A68079B5A404FF0F8
:103AC000000302D109B05DF804FBFEF795FC00BFCE
:103AD0000C000020DD39000898B70008E00B00203A
:103AE0002DE9F04F83B03E4B1D6894683D4BA3FB1E
:103AF00004639B0803EB4303A4EB43033A4C54F8E1
:103B000023606C68A54261D04FF0FF330093994663
:103B100000230193984614E07346FFF7FFFE55E03B
:103B2000D4450BD29AFBFCFB0CFB1BABBBF1000F8B
:103B300004D19AFBFCFC009B9C453CD36468A542E5
:103B40003ED0A4F1180E54F8103C264FA7FB037C7E
:103B50004FEA9C0C0CEB4C0CA3EB4C0C224B53F897
:103B60002C30C3F3076A0AF0C00ABAF1C00FE5D1DE
:103B700054F80C7CD2F80CC06745CDD016F0005F2D
:103B8000DCD033F07F47D9D036F07F471ED0C3F367
:103B9000170CC6F3170AD445C2D39CFBFAFB0AFBE9
:103BA0001BCBBBF1000FBBD19CFBFAFCCC45C5D2B3
:103BB000E146F046C2E7CDF800C0CDF804E0BDE72D
:103BC000B8F1000F05D04346FFF7A8FE03B0BDE8EB
:103BD000F08F019B002BF9D0FFF7A0FEF6E700BFA6
:103BE000C00B0020ABAAAAAA9C0B002070B582B023
:103BF00006460D461446022313719268194BA3FB27
:103C000002139B0803EB4303A2EB4303164A02EBA8
:103C10008302D27812F0400F10D102230193E3689F
:103C20000093D4E90A2304F11800FFF783FD012271
:103C300030462946FEF7A8FF02B070BD0A4A02EBE3
:103C40008302D278D209E8D1074A02EB8303DA78FB
:103C500042F08002DA7022462946FFF741FFC4E9AC
:103C60000A01DAE7ABAAAAAA9C0B002070B584B0BF
:103C700006460D461446284B1B6803934FF000037D
:103C800053690193136902930023082201A9234871
:103C90000068FEF731FF637963B1012B31D0022B4D
:103CA00035D01D4B1A68039B5A404FF0000331D1A9
:103CB00004B070BD1A4B1A6822601C600022227189
:103CC000A3681848A0FB0310800800EB4000A3EB9A
:103CD000400004231946144D05EB8000FEF7F5FA69
:103CE000A36813F10B0F02D80633A360D9E70D4A7E
:103CF000A2FB0312920802EB4202A3EB4203A36071
:103D0000CFE7224630462946FFF770FFC9E7012377
:103D10002371C6E7FEF770FB0C000020BC0B0020EF
:103D2000B80B0020ABAAAAAA9C0B00202DE9F041F9
:103D30001B4B1D686C68A5422FD01A4B1A685B6834
:103D4000B3F1FF3F08BFB2F1FF3F1DD10026374658
:103D50000020A268E368964277EB030112D3A4F136
:103D600018082261636121460D4B1868FFF7D2FCE9
:103D7000424630463946FFF779FF6C680120A5427C
:103D8000E7D10120BDE8F081FEF7F8FE054A16688C
:103D90005768861B61EB0707DAE70020F2E700BFF0
:103DA000C00B00201800002030B583B0182300227B
:103DB00019463248FEF789FA4FF49071304B186873
:103DC00001F092FA002856D005464FF49073002275
:103DD0001946FEF77AFA2B4B1D602B4B1D60002312
:103DE000AB6005F13004012305E0A3602C600133D2
:103DF0009BB225463034052BF7D9082300930023C6
:103E0000224A06211846FEF735FD88B9FFF738FE2D
:103E1000A8B90220FFF728FD1D4B1860B0B1FFF7CD
:103E200075FCD0B91B48FFF7AFF8E8B903B030BD57
:103E30002146134B186800F0E7FF1748F6E72146C4
:103E40000F4B186800F0E0FF1448EFE721460C4BD9
:103E5000186800F0D9FF0120E8E72146084B1868F0
:103E600000F0D2FF0120E1E72146054B186800F081
:103E7000CBFF0120DAE70A48D8E700BF9C0B0020FF
:103E8000109C0020B40B0020B80B0020BC0B0020BD
:103E9000C00B00202D3D00080B0300020C030002A4
:103EA0000703000270B5FCF7D6F9064616E0626813
:103EB0002368136062685A600025656025600B4BBB
:103EC0005A68626023605A6814605C6054F81C1C75
:103ED000074B186800F098FF44F81C5C054B5C68C1
:103EE0009C42E4D13046FCF7BEF970BDCC0B0020FB
:103EF000109C0020EC0B002008B500E09847FFF76D
:103F0000D1FF034B1B68002BF8D1FEF7D7FAF6E779
:103F1000C40B002038B5284B1C680134C4EB0414D2
:103F2000E4002146254B186801F0DEF9244B1860A7
:103F300000283ED0234600222146FEF7C6F9214B39
:103F40005B601B60204B5B601B60002413E0C4EBD4
:103F500004121B4B1B6803EBC20301229A801C63F3
:103F600003F14801174A12685068D8649A6453688C
:103F70001960516001340C2CE9D9144D082300223A
:103F800019462846FEF7A1F90B4B1A68C2EB02123C
:103F90000B4B1B6803EBC2032B601C6311229A803E
:103FA0002022DA800A4B4FF0FF321A60FEF7F6FF4C
:103FB00038BD0848FCE700BFE80B0020109C00203B
:103FC000E40B0020CC0B0020EC0B0020D40B0020D5
:103FD000C80B00200002000338B504468B68036458
:103FE000C262CB68836200258563C5630223838038
:103FF0008B88C3808560C5600B6843634FF0FF33D7
:10400000836545660B694364C566C968006BFEF746
:1040100091F920604FF0FF324FF0FF33C4E90623DF
:1040200004F15800FEF780FA284638BD00286CD00D
:10403000F8B50C46064629B30B692BB30A682AB3B8
:104040008B881F2B24D816D0E368B3F5104F21D8E6
:1040500013B94FF43873E360E36813F1080F0FD915
:104060000022134423F00703E360B3F5987F13D3D2
:10407000002098B1F8BD264B9A42E5D02548F8E7D4
:104080000722EEE72448F4E72448F2E72448F0E763
:104090002048EEE72348ECE72348EAE7FFF702FF72
:1040A000FCF7D9F8214B5D689D421DD0A5F148076A
:1040B0006A682B6813606A685A6000236B602B6023
:1040C000FCF7D1F80822E168194B186801F03AF9B9
:1040D000024668B121463846FFF77EFF0028C9D165
:1040E00055F8183C3360C5E7FCF7BDF81148C1E747
:1040F000FCF7B1F80D4B5A686A602B605A6815607E
:104100005D60FCF7B0F80C48B4E70C48704700BF9E
:10411000F93E00080302000201020002050200024B
:10412000040200022002000206020002CC0B002062
:10413000109C00201102000200020003070200028E
:1041400010B588B0184B1B6807934FF00003182375
:104150000022194601A8FEF7B8F8144B01934FF45A
:10416000A0630493124B05931F23ADF8083001A9F7
:104170001048FFF75BFF044648B10B4B1A68079BDA
:104180005A404FF000030DD1204608B010BD094B36
:104190001868C0EB0010084B1B6803EBC000FEF76B
:1041A000EFFEEAE7FEF728F90C000020F93E0008D0
:1041B000A4B70008C80B0020E40B002070B504462B
:1041C000FFF734FF054608B1284670BD0B4B1E684B
:1041D0002368C3EB031306EBC306FCF73CF8044665
:1041E0003046FEF7B3FD2046FCF73DF8044B1B6854
:1041F0000BB91D46E8E7FFF743FAE5E7E40B0020BB
:10420000F40B002070B5414B1D68C0EB001305EBAB
:10421000C3053F4B1B6898423CD004463D4B1B688E
:10422000984239D03C4B1B68984237D2FCF713F8C0
:104230000646AB8813F0010F32D113F0100F03D0F4
:10424000364B1B88002B2FD12846FEF723FE05F1A5
:104250005800FEF777F94FF0FF33AB6500236B662C
:10426000AB8813F0100F2BD10123AB8005F148026E
:104270002B4B5968E964AB640A605A60E96A294BC0
:10428000186800F0C1FD0024EC623046FBF7EBFF3C
:10429000204670BD2448FCE72448FAE72448F8E7A4
:1042A000FBF7E1FF2348F4E70420FEF71FF918B1FC
:1042B0001A4B00221A80C7E71F4801F097F9F7E769
:1042C0000123AB8005F148021C4B1B685968E96467
:1042D000AB6459680A605A600F4B1A68C2EB02124D
:1042E0000A4B1B6803EBC203154A13601C63AA88C0
:1042F00042F010029A80EA6ADA626A6C5A643046C6
:10430000FBF7B1FFFFF7BCF90020C2E7E40B002088
:10431000C80B0020E00B0020E80B0020DC0B002085
:10432000CC0B0020109C002014020002210200028D
:10433000070200020A020002B0B70008EC0B0020DE
:10434000D40B002010B50C4B1C68C0EB001004EB24
:10435000C004636B206C9847206BFFF753FF00B9D4
:1043600010BD0220FEF7C2F80028F9D1216B0348E6
:1043700001F0DAF8F4E700BFE40B0020E8B700082A
:1043800010B5FBF768FF0446FEF7ACFD2046FBF7CF
:104390006AFFFFF775F9002010BD000070B50446F4
:1043A000FEF722F8B8B905460D4B1B88ABB974B1BE
:1043B000FBF751FF064621460A4B1868FEF79AFDA7
:1043C0003046FBF750FFFFF75BF9284670BDFFF75B
:1043D000D7FF0546F9E7044DF7E7044DF5E700BFC1
:1043E000DC0B0020D40B00200D0200030E020002A3
:1043F00008B5FFF75BF808BD08B50C4B1A685B6899
:10440000B3F1FF3F08BFB2F1FF3F06D100200146E4
:10441000074A0023FCF73EFB08BDFEF7AFFB034A4B
:1044200013685268C01A61EB0201F1E7180000201E
:1044300020480100426800F56B7399422AD310446A
:10444000814201D30120704730B48C682CB19C426A
:1044500022D3844201D301201FE0CD682DB19D42BB
:104460001DD3854201D3012017E00A689A4218D370
:10447000824201D3012010E011F0030F13D114F098
:10448000030F12D115F0030F11D112F0030004D065
:10449000012002E001207047012030BC704701205C
:1044A000FBE70120F9E70120F7E70120F5E701200C
:1044B000F3E730B54368002B07DB33F040431ED1F0
:1044C0009C469E461C46012507E023F040444FF0E1
:1044D000000C65464FF0010E63460A6814440C60F8
:1044E0004A6813444B608868604538BF60468860FE
:1044F000CA687244CA600B692B440B6130BD9C468C
:1045000001254FF0000E7446E7E70000F0B583B0D8
:1045100005460368834204D110F0030601D13746F3
:1045200028E00220FDF7E2FF08B103B0F0BD40F241
:104530004C631F4A29461F4800F0F6FFF5E7236841
:10454000E2680192A2680092224631461A4800F0C1
:10455000EBFF0127E46864B121462846FFF76AFFB4
:104560000028F7D00220FDF7C1FF0028E7D001277F
:10457000F0E70136DE2E04D806F10C0355F823408F
:10458000E9E7002FD1D00120FDF7B0FF50B10120A5
:10459000FDF7ACFF0028C8D12A69E968074800F098
:1045A000C3FFC2E76A682946054800F0BDFFEEE791
:1045B00078BE000808B8000838B80008A4B8000899
:1045C00074B8000810B50C460A689368B3B1416826
:1045D00000F56B7C634502D301448B420ED302206D
:1045E000FDF784FF08B1012010BD23689B6840F2ED
:1045F0000B621149114800F097FFF4E7D368B3B19B
:10460000426800F56B718B4202D31044834210D391
:104610000220FDF76BFF08B10120E5E72368DB68A6
:1046200040F211620449064800F07EFFF4E70020E2
:10463000DAE70020D8E700BF44BE0008E0B8000871
:104640002CB9000810B504460B46006801685A688A
:1046500003F56B7C614502D31A44914205D30220D5
:10466000FDF744FF30B1012010BD4268002A0ADA8C
:104670000020F9E723681B6840F2226206490748D8
:1046800000F052FFEFE721461846FFF79BFF002896
:10469000EAD00120E8E700BF60BE000878B9000852
:1046A000F8B506460C4617464568083D0544FFF731
:1046B0002DFF06F56B733B60236006E023683B60CB
:1046C0005A6822F04042134423602368AB4207D269
:1046D0002A4631462046FFF7B5FF0128EED100E01B
:1046E0000020F8BD30B583B005460C4688420FD097
:1046F0006B68002B15DB0120FDF7F8FEE0B1636865
:10470000002B22DB0120FDF7F1FE48B303B030BDE2
:104710000120FDF7EBFE0028EAD1164800F066FF05
:10472000E6E70120FDF7E2FE0028E8D16A68296883
:10473000114800F0F9FEE2E76B680093AB68EA68A5
:1047400029680E4800F0F0FED9E70120FDF7CEFE03
:104750000028DBD162682168094800F0E5FED5E752
:1047600063680093A368E2682168064800F0DCFEF5
:10477000CCE700BFC0B90008E4B9000804BA0008DB
:104780002CBA000848BA000880B506460C46154603
:104790001F4611462046FFF7A5FFDFF838800823A3
:1047A0002A4619464046FDF79CFD08232246194635
:1047B00008EB0300FDF795FDB36813F0020F04D07A
:1047C0002A4621460448FDF7DDFE3846FBF74BFD3F
:1047D000F6E700BF000C00206CBA000870B5024676
:1047E00000F56B754368083B00EB030C8D420ED857
:1047F0008C450ED34B68002B28DB08685368AE4607
:10480000A84225D31344984224D3002002E000207C
:1048100000E00020002855D04B68002B53DA23F02D
:10482000404301EB030E754516D8F4451BD3DEF863
:104830000440002C19DBCC58566802F56B7E744599
:1048400015D31644B44214D3002406E00120E1E756
:104850000020DFE70120DDE70024A4B3CB588B4222
:1048600009D020462FE00024F7E70446F5E70024AE
:10487000F3E70446F1E78D4226D00B68AB420FD335
:10488000634517D85868002816DB1D68506802F584
:104890006B76B54212D30244954211D3002000E05A
:1048A000002098B15A6822F0404213448B420AD14A
:1048B000002008E00020F4E72046F2E70020F0E7BF
:1048C0002046EEE7012070BD0020FCE72046FAE715
:1048D0002DE9F84304460E464FF46B730022194647
:1048E000FDF7F3FC24606660A36823F00303A36074
:1048F00004F56B78A6F56D73C4F8B033083E04EB8D
:104900000609C4F8AC93D8F804707F2F06D947B1D4
:10491000B7FA87F5C5F11F05ADB203E0BD08013D4B
:1049200001E03D4618351E2D2BD8DE2D42D805F16D
:104930000C0354F823300BB1C3F808800020C8F8EA
:104940000800C8F80C3005F10C0344F823806B090B
:1049500005F01F05012202FA05F5043304EB830379
:104960005A682A435A60C9F8040044F806804FF098
:104970000043C9F804304FF46D732361E360BDE870
:10498000F8830BD97F2F09D9FF00A5F11803DF4069
:10499000083F1F3D07EBC5051F35C6E70220FDF7A1
:1049A000A5FD08B10027F4E73A462946034800F080
:1049B000BBFDF7E729460248FDF7E4FDACBA000865
:1049C000DCBA00082DE9F84306468D1889504B687B
:1049D0009B1A6B604A606C6824F040442F192D517B
:1049E0007B68002B0ADA6F687F2F6AD9002F6BD0A3
:1049F000B7FA87F4C4F11F04A4B266E099467F2B8E
:104A000007D95BB1B3FA83F8C8F11F081FFA88F819
:104A100005E04FEA930808F1FF3802E0984608F1F4
:104A20001808B8F11E0F14D808F10C0356F82330FB
:104A30009F422ED0BA68FB68D3600BB1BA689A6007
:104A40002A59796853680B4453607B682A59DA51B4
:104A5000C9E711D9B9F17F0F0ED94FEAC909A8F1F9
:104A6000180329FA03F9A9F10809A8F11F0809EBAD
:104A7000C80808F11F08D7E70220FDF737FD10B17D
:104A80004FF00009F1E74A4641462E4800F04CFD40
:104A9000F6E7FB6808F10C0246F8223013B1002259
:104AA0009A60CDE74FEA581308F01F08012202FA76
:104AB00008F8043306EB83035A6822EA08025A60B6
:104AC000BEE7BC08013C01E03C4618341E2C1CD853
:104AD000DE2C33D804F10C0356F8233003B19D606B
:104AE0000022AA60EB6004F10C0346F82350600931
:104AF00004F01F04012303FA04F4043006EB8006DB
:104B0000736823437360BDE8F8830BD97F2F09D9FD
:104B1000FF00A4F11803DF40083F1F3C07EBC4046B
:104B20001F34D5E70220FDF7E1FC08B10027F4E7C8
:104B30003A462146034800F0F7FCF7E721460248D1
:104B4000FDF720FDACBA0008DCBA00082DE9F843F7
:104B500006460C46FFF742FE8046002846D16368B1
:104B600023F0404233699B1A3361636823F040436A
:104B70006360256815B16B68002B40DA656825F025
:104B80004045651903D06B68002B80F292806768FE
:104B90007F2F40F2E780002F00F0E780B7FA87F51B
:104BA000C5F11F05ADB218351E2D00F2E080DE2DD7
:104BB00000F2F68005F10C0356F8233003B19C6037
:104BC0000022A260E36005F10C0346F82340680967
:104BD00005F01F05012303FA05F5043006EB8006F6
:104BE00073682B4373604046BDE8F8830220FDF7ED
:104BF0007DFC0028F7D16C4800F0F8FCF3E79946FB
:104C00007F2B1ED903B3B3FA83F7C7F11F07BFB2D7
:104C100018371E2F1AD807F10C0356F823309D427F
:104C200030D0AA68EB68D3600BB1AA689A6022689A
:104C3000616853680B445360636822681A512C46BC
:104C40009CE79F08013FE4E71F46E1E70ED9B9F171
:104C50007F0F0BD94FEAC903A7F1180923FA09F30B
:104C6000083B1F3F03EBC7071F37D4E70220FDF7C0
:104C70003DFC08B14346F4E74A4639464B4800F04C
:104C800053FCF7E7EB6807F10C0246F8223013B14A
:104C900000229A60CBE77B0907F01F07012202FA86
:104CA00007F7043306EB83035A6822EA07025A60C7
:104CB000BDE799467F2B1DD9FBB1B3FA83F7C7F146
:104CC0001F07BFB218371E2F19D807F10C0356F86B
:104CD00023309D422FD0AA68EB68D3600BB1AA683D
:104CE0009A602A68696853680B4453606B682A6845
:104CF0005A514CE79F08013FE5E71F46E2E70ED90E
:104D0000B9F17F0F0BD94FEAC903A7F1180923FAAC
:104D100009F3083B1F3F03EBC7071F37D5E7022006
:104D2000FDF7E4FB08B14346F4E74A4639461F481D
:104D300000F0FAFBF7E7EB6807F10C0246F82230C7
:104D400013B100229A60CCE77B0907F01F0701220C
:104D500002FA07F7043306EB83035A6822EA0702D4
:104D60005A60BEE7BD08013D1EE73D461BE70BD973
:104D70007F2F09D9FF00A5F11803DF40083F1F3D31
:104D800007EBC5051F3512E70220FDF7AFFB08B1A1
:104D90004746F4E73A462946044800F0C5FBF7E7E2
:104DA00029460348FDF7EEFB0CBB0008ACBA00082F
:104DB000DCBA0008E8B138B50C460546B1F56D7FA0
:104DC0001AD910F0030F06D111F0030F03D1FFF72A
:104DD0007FFDA0B938BD0220FDF788FB10B14FF070
:104DE000FF30F7E7042322462946064800F09CFBE3
:104DF000F5E74FF0FF3070474FF0FF30EAE74FF034
:104E0000FF30E7E724BB0008F8B5002851D00C4676
:104E1000054600294FD010F0030F4ED111F00307C3
:104E20004ED1836813F0020F21D0224654F8046C4F
:104E300016F0804301D0002E1DDB4BB126F08044DC
:104E400016F0030F25D1531B083B9C4221D8141B9D
:104E50006CB3A4F108012846FFF778FE0446AB685E
:104E600013F0020F2AD13846FBF7FDF926E0FBF7D5
:104E7000F2F90746D9E70220FDF738FB08B1002414
:104E8000E6E7334640F20C520E490F4800F04CFB67
:104E9000F5E70220FDF72AFB08B10024D8E72346F6
:104EA00040F214520749084800F03EFBF5E70124A0
:104EB000D5E7012402E0012400E001242046F8BDEA
:104EC0000124FBE78CBE000884BB000808B14068E1
:104ED000704701207047000030B585B01A4B1B6841
:104EE00003934FF0000350B3044600230193029351
:104EF000836813F0020F13D0002502AA01A92046EF
:104F0000FFF7CEFB80B9A46814F0020412D00E4B58
:104F10001A68039B5A404FF0000312D105B030BD10
:104F2000FBF799F90546E8E72B46029A01992046D6
:104F3000FFF72AFC2846FBF796F92046E7E7012011
:104F4000E5E7FDF759FA00BF0C0000202DE9F84312
:104F500090B10E4617468046FFF7BEFF814698B9CE
:104F6000D8F8083013F0020F16D0D8F80450083DD6
:104F7000454408F56B741AE00120FDF7B7FAF8B95B
:104F8000124800F033FB1BE00120FDF7AFFAB8B97F
:104F90000F4800F02BFB13E0FBF75DF98146E4E7D7
:104FA00039462046B047636823F040431C44AC4276
:104FB00001D8AC42F4D1D8F8083013F0020F01D078
:104FC000BDE8F8834846FBF74EF9F9E7A0BB0008B7
:104FD000B4BB000838B561B104460D4610B1036892
:104FE000834217D00220FDF781FA60B101242046E8
:104FF00038BD0220FDF77AFA08B10124F7E714481A
:1050000000F0F4FAF9E740F263722146114800F02B
:105010008BFAEBE71823002219462846FDF755F9CD
:105020002A460D492046FFF791FFA36813F0020FAF
:1050300008D00020E3686B61A46814F0020404D077
:105040000024D4E7FBF707F9F4E7FBF70CF9CEE708
:10505000D0BB0008F4BB0008B344000810B58EB004
:105060000446224B1B680D934FF000030023079367
:10507000089309930A930B930C9307A9FFF7AAFFD0
:1050800001280BD00120FDF731FA80B10120FDF796
:105090002DFA80B10120FDF729FA80B1134B1A686F
:1050A0000D9B5A404FF000031DD10EB010BD1048AB
:1050B00000F09CFAEAE70F4800F098FAEAE7204689
:1050C000FFF704FF02460C9B04930B9B03930A9B80
:1050D0000293099B0193089B0093079B2168064854
:1050E00000F022FADAE7FDF787F900BF0C00002094
:1050F00018BC00089CBC000820BD0008F8B5044698
:1051000016460B3121F003057F2D06D945B1B5FABE
:1051100085F7C7F11F07BFB203E0AF08013F01E009
:105120002F4618371E2F18D8DF207B09043304EBD5
:1051300083035B6807F01F0101228A40524213403B
:1051400026D1DF22DF2A42D1791C2037B9422AD367
:105150000023194421F01F0128E00DD97F2D0BD920
:10516000EB00A7F11802D340083B1F3F03EBC70732
:1051700007F11F002037D8E70220FDF7B7F908B183
:105180000023F2E72A463946534800F0CDF9F7E705
:105190005A421340B3FA83F2C2F11F0227F01F03F1
:1051A00013FA82F2CEE71F23D3E72031DE2936D867
:1051B0004B09043304EB83035B68002BF5D05A42A0
:1051C0001A40B2FA82F2C2F11F0211FA82F202F11F
:1051D0000C0354F823705FB102F10C0354F8233030
:1051E0009F422ED0BA68FB68D3600BB1BA689A6050
:1051F000002F3DD005F110037A68934265D97B6892
:1052000043F000437B6023F0404322691344236151
:10521000E268934200D9E36008373846F8BDDF28DA
:105220000DD000F10C0354F8237000E0FF6827B1A3
:105230007B689D42FAD80246CDE70246CBE70027BD
:10524000C9E7FB6802F10C0144F8213013B10022D8
:105250009A60CDE7530902F01F02012101FA02F220
:10526000043304EB8303596821EA02015960BFE764
:105270000220FDF73BF9B8B1A36813F0020F17D075
:105280002046FFF7EBFEA36813F0020F14D00220B4
:10529000FDF72CF998B10220FDF728F90028BCD1C0
:1052A0000E4800F0A3F9B8E70C4800F09FF9E3E7D7
:1052B0003046FAF7D8FFE3E7FAF7CDFFE7E72A46EB
:1052C0000749084800F030F9E5E72A463946204604
:1052D000FFF778FB93E700BFACBA000870BD000889
:1052E0009CBE0008DCBD000870B5054630B30C4616
:1052F00031B3072900D80824AB6813F0020F07D098
:105300000026002C0FDB14F0804F05D000240BE0AA
:10531000FAF7A1FF0646F4E7324621462846FFF792
:10532000EDFE044600E00024AB6813F0020F01D04C
:10533000204670BD3046FAF796FFF9E70446F7E7D6
:105340000024F5E7F8B50646002842D015460029A6
:1053500041D0002A41D0531E134240D112F0030F16
:105360003FD1072900D808212B1FCA4393423AD8BE
:1053700029440C1F39D414F0804738D1B36813F096
:10538000020F1CD03A4621463046FFF7B7FE4319BC
:10539000013B6D421D402C46A84214D02B1A50F8F8
:1053A000042C42F0804240F8042C43F0804345F83E
:1053B000043CB36813F0020F07D02046F8BDFAF79B
:1053C0004AFF0746DEE70446F3E73846FAF74BFFA5
:1053D000F3E70446F1E70024EFE70024EDE70024BB
:1053E000EBE70024E9E70024E7E70024E5E70024F1
:1053F000E3E7000010B50B480B4B18604FF4104169
:10540000FFF7D8FC04460420FDF770F808B12046E9
:1054100010BD4FF41042044B1968044800F084F8A2
:10542000F5E700BF100C0020109C002018BE0008FB
:10543000014B1868704700BF2000002070B50D4E6A
:105440000D4D761BB61006D0002455F8043B0134F0
:105450009847A642F9D1094E094D761B06F010F87F
:10546000B61006D0002455F8043B01349847A642F4
:10547000F9D170BDB0C20008B0C20008B8C20008BF
:10548000B0C20008830730B548D0541E002A3FD070
:10549000CAB2034601E0013C3AD303F8012B9D0751
:1054A000F9D1032C2DD9CDB245EA05250F2C45EABB
:1054B000054536D9A4F1100222F00F0C03F1200E9D
:1054C000E6444FEA121C03F1100242E9045542E996
:1054D000025510327245F8D10CF1010214F00C0F94
:1054E00003EB021204F00F0C13D0ACF1040323F011
:1054F00003030433134442F8045B9342FBD10CF0E2
:1055000003042CB1CAB21C4403F8012B9C42FBD10A
:1055100030BD64461346002CF4D1F9E70346144627
:10552000BFE71A46A446E0E70FB400B5074983B0C9
:1055300004AB086853F8042B8168019300F0BCF8B1
:1055400003B05DF804EB04B0704700BF20000020FA
:1055500070B5054688B008460C46FBF7D1FC224ED4
:10556000AA6B059001214318CDE9066104A8022128
:1055700004940393AC680190029122B3636E13F01C
:10558000010FB4F90C309AB201D1980525D59104D8
:1055900006D4626E43F4005322F40052A381626683
:1055A000284601AA214603F063F9636E002814BF60
:1055B0004FF0FF350A25DA0702D4A3899B0506D5EB
:1055C000284608B070BD284602F054FFD6E7A06D0B
:1055D00003F0F0FA284608B070BDA06D03F0E8FAB9
:1055E000B4F90C309AB2D2E704B80008024B014675
:1055F0001868FFF7ADBF00BF2000002080EA01025D
:10560000844612F0030F4FD111F0030F32D14DF841
:10561000044D11F0040F51F8043B0BD0A3F10132FB
:105620009A4312F0803F04BF4CF8043B51F8043B0E
:1056300016D100BF51F8044BA3F101329A4312F086
:10564000803FA4F101320BD14CF8043BA24312F08D
:10565000803F04BF51F8043B4CF8044BEAD023468A
:105660000CF8013B13F0FF0F4FEA3323F8D15DF83C
:10567000044B704711F0010F06D011F8012B0CF804
:10568000012B002A08BF704711F0020FBFD031F87C
:10569000022B12F0FF0F16BF2CF8022B8CF8002003
:1056A00012F47F4FB3D1704711F8012B0CF8012B86
:1056B000002AF9D1704700BF2DE9F04FD5B01C4644
:1056C000079191460546099003F06AFA026817921D
:1056D00010460E94FBF714FC16901DB1AB6B002B1B
:1056E00000F02A82079A536EDD0740F13881B2F943
:1056F0000C2091B28F0409D4079B42F400529A8186
:1057000091B21A465B6E23F4005353660E0740F1C4
:10571000CB80079B1B69002B00F0C68001F01A03A9
:105720000A2B00F0CF8000242BAB4D46CDE9294455
:10573000CDE91944CDE91B44129428939846189456
:1057400000230B940024CDE914342B78002B00F0B7
:105750009D81AA4604E01AF8013F002B00F0C780A3
:10576000252BF8D1BAEB050640F0C5809AF8003039
:10577000002B00F08B8100234FF0FF329AF801607C
:105780008DF883300A930AF1010A08921F462B24F0
:105790004FF020090AF1010AA6F120035A2B00F26A
:1057A000ED80DFE813F0EB02EB00EB00E602EB002C
:1057B000EB00EB006A00EB00EB005C028002EB0008
:1057C00067028A02EB0085025B005B005B005B0006
:1057D0005B005B005B005B005B00EB00EB00EB0041
:1057E000EB00EB00EB00EB007A01EB00F801D201DB
:1057F0007A017A017A01EB00EB00EB00EB00E102A9
:10580000EB00EB002D02EB00EB00EB000202EB00E3
:10581000A402EB00EB008307EB00EB00EB00EB00D6
:10582000EB00EB00EB00EB007A01EB00F801D40198
:105830007A017A017A01C702D401CD01EB00D402CA
:10584000EB006C022F02B502CD01EB0002027E00DC
:105850008007EB00EB006107EB007E00A6F1300350
:1058600000221AF8016B02EB820203EB4202A6F15E
:105870003003092BF5D90A928EE7DDF824B058469B
:1058800003F08EF943681B931846FBF739FB1C9015
:105890000646584603F084F983681993002E40F0B9
:1058A000CD869AF8006075E7079D0998294601F0B2
:1058B000ADFC002841F01C83A98901F01A030A2BD2
:1058C0007FF431AF079AB2F90E30002BFFF62BAF01
:1058D000536ED80702D4890541F13B810799099895
:1058E00023464A4655B0BDE8F04F01F04FBCBAEB35
:1058F000050600F0CB802A9B33442A93299B013371
:10590000072BC8E90056299305DC08F108080B9B12
:1059100033440B932AE70799099828AA04F088FBD7
:1059200080B90DF1AC08F2E70799099828AA04F0AC
:105930007FFB002800F09B800D9B1BB10998194646
:1059400002F090FE079A536ED90740F1EA809389DE
:105950005B0601F1D9820B9855B0BDE8F08F079B2B
:10596000B3F90C20900591B23FF5C4AE1D46986D79
:1059700003F01EF9B5F90C2091B2BBE6002E00F041
:10598000858000228DF8EC608DF883200123CDE91D
:105990000C32069308920F92139210923BAD17F0BF
:1059A000020302D006990231069117F0840B07D149
:1059B0000A990698A1EB0009B9F1000F00F3708372
:1059C0002A9C8AB1299A0DF1830101320134C8F869
:1059D0000010072A4FF001012A942992C8F80410F8
:1059E00000F3B68308F1080883B1299B21AA01338B
:1059F0000234C8F80020072B4FF002022A942993A2
:105A0000C8F8042000F3B28308F10808BBF1800F46
:105A100000F06982089B0C9AA3EB020BBBF1000F0C
:105A200000F3AA82FB0500F100820C9BC8F8043049
:105A30001C44299BC8F800500133072B2A94299352
:105A400000F3228308F10808780705D50A9B069A17
:105A50009D1A002D00F39683DDE90A2306998A42F8
:105A6000ACBF9B185B180B93002C7FF45DAF002339
:105A700029930D9B1BB10D99099802F0F3FD0DF1CF
:105A8000AC0855462B78002B7FF463AE2A9B002B85
:105A900041F0D3810023299354E70E9B073323F071
:105AA0000702F2E80234CDE91434DDE9143424F0BD
:105AB00000440E92994618462146B54B4FF0FF32EE
:105AC000FBF766FB002840F0EF84B14B48462146C7
:105AD0004FF0FF32FBF73EFB002840F0E584DDE9A4
:105AE000140100220023FBF72BFB002840F06787FE
:105AF0009DF88320A74DA84B27F080070321472E50
